:020000040800F2
:1000000000040020C1010008B12B0008B12B00083A
:1000100021220008B12B0008B12B0008B12B0008E9
:10002000B12B0008B12B0008B12B0008514C00087F
:10003000B12B0008B12B0008B12B0008919C0008DF
:10004000B12B000851770008E178000831790008E9
:10005000B12B0008B12B000891740008E17400086E
:100060003175000881750008D1750008D169000854
:10007000216A0008716A0008C16A0008116B000853
:10008000616B0008B16B000801730008D17A0008A9
:10009000417B0008F17B0008A17C00082176000864
:1000A000B12B0008B12B0008F1960008B12B000815
:1000B0005198000891980008D1980008A18800087C
:1000C000E1890008B12B0008B12B0008B12B000812
:1000D000B12B0008B12B0008B12B0008519D00087E
:1000E000B1760008A1770008F1770008B12B00086D
:1000F000B12B000831970008B12B0008016C0008F3
:10010000B12B0008317E000811990008B12B0008BE
:10011000B12B0008B12B0008B1960008B12B0008E4
:10012000516C0008A16C0008F16C0008416D0008DA
:10013000916D0008B12B000841780008B12B000830
:10014000B12B0008B12B0008B12B0008519000081A
:10015000E16D0008316E0008816E0008B12B0008C7
:10016000B12B0008B12B0008B12B0008B12B0008FF
:1001700091780008B12B000871130008B12B00081A
:10018000B12B0008B12B0008B12B0008B12B0008DF
:10019000B12B0008B12B0008B12B0008B12B0008CF
:1001A000B12B0008B12B0008B12B0008B12B0008BF
:1001B000B12B0008B12B0008B12B0008B12B0008AF
:1001C00072B62E4880F3098840F20000CCF200009D
:1001D0004EF63471CEF20001086040F20000C0F229
:1001E000F0004EF68851CEF2000108604FF000009A
:1001F000E1EE100A4EF63C71CEF2000108600620D6
:1002000080F31488BFF36F8F09F0EAFE4FF055308A
:100210001B491C4A91423CBF41F8040BFAE71A49BA
:10022000164A91423CBF41F8040BFAE71749184AB5
:10023000184B9A423EBF51F8040B42F8040BF8E702
:1002400000201549154A91423CBF41F8040BFAE7DA
:1002500002F096FC124C134DAC4203DA54F8041B26
:100260008847F9E700F0D4FF0F4C104DAC4203DA99
:1002700054F8041B8847F9E702F092BC00080020FC
:10028000000000200004002000040020D8E700083F
:1002900000080020EC110020F0110020B84A0020D6
:1002A000C0010008C0010008C0010008C00100082A
:1002B0002DE9F04F2DED108AC1F80CD0D0F80CD0FC
:1002C000BDEC108ABDE8F08F02F0B2FD03F090FDA6
:1002D000002383F311882846A047002003F058FB31
:1002E00003F06EFD02F084FD03F07AF902F0A0FD48
:1002F00003F07EFD00DFFEE70000000000000000CC
:1003000081F0004102E000BF83F0004330B54FEAC6
:1003100041044FEA430594EA050F08BF90EA020F33
:100320001FBF54EA000C55EA020C7FEA645C7FEAC6
:10033000655C00F0E2804FEA5454D4EB5555B8BFE9
:100340006D420CDD2C4480EA020281EA030382EA5A
:10035000000083EA010180EA020281EA0303362DEC
:1003600088BF30BD11F0004F4FEA01314FF4801CBF
:100370004CEA113102D0404261EB410113F0004FD1
:100380004FEA03334CEA133302D0524263EB430388
:1003900094EA050F00F0A780A4F10104D5F1200E26
:1003A0000DDB02FA0EFC22FA05F2801841F1000181
:1003B00003FA0EF2801843FA05F359410EE0A5F155
:1003C00020050EF1200E012A03FA0EFC28BF4CF086
:1003D000020C43FA05F3C01851EBE37101F000453C
:1003E00007D54FF0000EDCF1000C7EEB00006EEB49
:1003F0000101B1F5801F1BD3B1F5001F0CD34908D3
:100400005FEA30004FEA3C0C04F101044FEA445229
:1004100012F5800F80F09A80BCF1004F08BF5FEAB0
:10042000500C50F1000041EB045141EA050130BD90
:100430005FEA4C0C404141EB010111F4801FA4F133
:100440000104E9D191F0000F04BF01460020B1FA88
:1004500081F308BF2033A3F10B03B3F120020CDAC0
:100460000C3208DD02F1140CC2F10C0201FA0CF09E
:1004700021FA02F10CE002F11402D8BFC2F1200C03
:1004800001FA02F120FA0CFCDCBF41EA0C019040B9
:10049000E41AA2BF01EB0451294330BD6FEA040402
:1004A0001F3C1CDA0C340EDC04F11404C4F12002ED
:1004B00020FA04F001FA02F340EA030021FA04F3FF
:1004C00045EA030130BDC4F10C04C4F1200220FA56
:1004D00002F001FA04F340EA0300294630BD21FA94
:1004E00004F0294630BD94F0000F83F4801306BF5A
:1004F00081F480110134013D4EE77FEA645C18BF4E
:100500007FEA655C29D094EA050F08BF90EA020FE4
:1005100005D054EA000C04BF1946104630BD91EADC
:10052000030F1EBF0021002030BD5FEA545C05D1DF
:100530004000494128BF41F0004130BD14F580041E
:100540003CBF01F5801130BD01F0004545F0FE4192
:1005500041F470014FF0000030BD7FEA645C1ABFC7
:10056000194610467FEA655C1CBF0B46024650EAFE
:10057000013406BF52EA033591EA030F41F400212A
:1005800030BD00BF90F0000F04BF0021704730B5B0
:100590004FF4806404F132044FF000054FF0000185
:1005A00050E700BF90F0000F04BF0021704730B546
:1005B0004FF4806404F1320410F0004548BF40421B
:1005C0004FF000013EE700BF42004FEAE2014FEA70
:1005D00031014FEA02701FBF12F07F4393F07F4F4B
:1005E00081F06051704732F07F4208BF704793F04E
:1005F0007F4F04BF41F40021704730B54FF4607461
:1006000001F0004521F000411CE700BF50EA010263
:1006100008BF704730B54FF000050AE050EA01020C
:1006200008BF704730B511F0004502D5404261EB7C
:1006300041014FF4806404F132045FEA915C3FF4BD
:10064000D8AE4FF003025FEADC0C18BF03325FEA5A
:10065000DC0C18BF033202EBDC02C2F1200300FA0B
:1006600003FC20FA02F001FA03FE40EA0E0021FA30
:1006700002F11444BDE600BF0000000000000000CD
:1006800070B54FF0FF0C4CF4E06C1CEA11541DBF28
:100690001CEA135594EA0C0F95EA0C0F00F0DEF8F3
:1006A0002C4481EA030621EA4C5123EA4C5350EAD8
:1006B000013518BF52EA033541F4801143F4801329
:1006C00038D0A0FB02CE4FF00005E1FB02E506F0BA
:1006D0000042E0FB03E54FF00006E1FB03569CF00F
:1006E000000F18BF4EF0010EA4F1FF04B6F5007F15
:1006F00064F5407404D25FEA4E0E6D4146EB060687
:1007000042EAC62141EA55514FEAC52040EA5E500F
:100710004FEACE2EB4F1FD0C88BFBCF5E06F1ED8B9
:10072000BEF1004F08BF5FEA500E50F1000041EBF0
:10073000045170BD06F0004646EA010140EA02009D
:1007400081EA0301B4EB5C04C2BFD4EB0C0541EABF
:10075000045170BD41F480114FF0000E013C00F3D4
:10076000AB8014F1360FDEBF002001F0004170BDF8
:10077000C4F10004203C35DA0C341BDC04F1140411
:10078000C4F1200500FA05F320FA04F001FA05F29D
:1007900040EA020001F0004221F0004110EBD3706A
:1007A00021FA04F642EB06015EEA430E08BF20EA96
:1007B000D37070BDC4F10C04C4F1200500FA04F339
:1007C00020FA05F001FA04F240EA020001F00041CB
:1007D00010EBD37041F100015EEA430E08BF20EA3E
:1007E000D37070BDC4F1200500FA05F24EEA020E86
:1007F00020FA04F301FA05F243EA020321FA04F0B5
:1008000001F0004121FA04F220EA020000EBD3706B
:100810005EEA430E08BF20EAD37070BD94F0000F6B
:100820000FD101F00046400041EB010111F4801F9F
:1008300008BF013CF7D041EA060195F0000F18BF50
:10084000704703F00046520043EB030313F4801F8C
:1008500008BF013DF7D043EA0603704794EA0C0F46
:100860000CEA135518BF95EA0C0F0CD050EA41065C
:1008700018BF52EA4306D1D181EA030101F00041D9
:100880004FF0000070BD50EA410606BF1046194601
:1008900052EA430619D094EA0C0F02D150EA01360D
:1008A00013D195EA0C0F05D152EA03361CBF10464E
:1008B00019460AD181EA030101F0004141F0FE41ED
:1008C00041F470014FF0000070BD41F0FE4141F471
:1008D000780170BD70B54FF0FF0C4CF4E06C1CEA71
:1008E00011541DBF1CEA135594EA0C0F95EA0C0F26
:1008F00000F0A7F8A4EB050481EA030E52EA0335E1
:100900004FEA013100F088804FEA03334FF0805501
:1009100045EA131343EA12634FEA022245EA11152E
:1009200045EA10654FEA00260EF000419D4208BFDF
:10093000964244F1FD0404F5407402D25B084FEA8C
:100940003202B61A65EB03055B084FEA32024FF438
:1009500080104FF4002CB6EB020E75EB030E22BF95
:10096000B61A754640EA0C005B084FEA3202B6EB55
:10097000020E75EB030E22BFB61A754640EA5C0004
:100980005B084FEA3202B6EB020E75EB030E22BF94
:10099000B61A754640EA9C005B084FEA3202B6EB95
:1009A000020E75EB030E22BFB61A754640EADC0054
:1009B00055EA060E18D04FEA051545EA16754FEAB6
:1009C00006164FEAC30343EA52734FEAC2025FEAD4
:1009D0001C1CC0D111F4801F0BD141EA00014FF063
:1009E00000004FF0004CB6E711F4801F04BF014334
:1009F0000020B4F1FD0C88BFBCF5E06F3FF6AFAE50
:100A0000B5EB030C04BFB6EB020C5FEA500C50F1DF
:100A1000000041EB045170BD0EF0004E4EEA113162
:100A200014EB5C04C2BFD4EB0C0541EA045170BD69
:100A300041F480114FF0000E013C90E645EA060EAD
:100A40008DE60CEA135594EA0C0F08BF95EA0C0FDB
:100A50003FF43BAF94EA0C0F0AD150EA01347FF423
:100A600034AF95EA0C0F7FF425AF104619462CE7FA
:100A700095EA0C0F06D152EA03353FF4FDAE10465D
:100A8000194622E750EA410618BF52EA43067FF4AE
:100A9000C5AE50EA41047FF40DAF52EA43057FF43E
:100AA000EBAE12E7000000000000000000000000B4
:100AB0004FEA410212F5001215D211D56FF4787386
:100AC000B3EB625212D94FEAC12343F0004343EA29
:100AD000505311F0004F23FA02F018BF4042704704
:100AE0004FF00000704750EA013005D111F000408E
:100AF00008BF6FF0004070474FF00000704700BF24
:100B000053B94AB9002908BF00281CBF4FF0FF3174
:100B10004FF0FF3000F074B9ADF1080C6DE904CE70
:100B200000F006F8DDF804E0DDE9022304B07047C8
:100B30002DE9F047089E04468846002B4BD18A4297
:100B4000154667D9B2FA82F24AB1C2F1200701FA1A
:100B500002F320FA07F7954047EA030894404FEA6A
:100B6000154E230CB8FBFEF71FFA85FC0EFB178809
:100B700043EA084307FB0CF1994209D9EB1807F146
:100B8000FF3080F01B81994240F21881023F2B44D4
:100B90005B1AA4B2B3FBFEF00EFB103344EA03442D
:100BA00000FB0CFCA44509D92C1900F1FF3380F09F
:100BB0000781A44540F2048102382C4440EA0740F2
:100BC000A4EB0C0400271EB1D4400023C6E9004367
:100BD0003946BDE8F0878B4209D9002E00F0EB8042
:100BE0000027C6E9000138463946BDE8F087B3FA68
:100BF00083F7002F47D18B4202D3824200F2FA8062
:100C0000841A61EB030301209846002EE0D0C6E968
:100C10000048DDE702B9FFDEB2FA82F2002A40F0B6
:100C20008F80491B4FEA154E1FFA85F80127B1FB4B
:100C3000FEFC230C0EFB1C1143EA014308FB0CF1E4
:100C4000994207D9EB180CF1FF3002D2994200F219
:100C5000CD808446591AA3B2B1FBFEF00EFB1014EE
:100C600043EA044408FB00F8A04507D92C1900F119
:100C7000FF3302D2A04500F2B6801846A4EB080468
:100C800040EA0C409FE7C7F1200CBB4022FA0CFE63
:100C90004EEA030E01FA07F420FA0CF521FA0CF3E0
:100CA0004FEA1E482543B3FBF8F92C0C08FB193317
:100CB0001FFA8EFA44EA034309FB0AF49C4202FA43
:100CC00007F200FA07F10BD91EEB030309F1FF301D
:100CD00080F087809C4240F28480A9F1020973442D
:100CE0001B1BADB2B3FBF8F008FB103345EA03441D
:100CF00000FB0AFAA24508D91EEB040400F1FF33F9
:100D00006BD2A24569D90238744440EA0940A0FB7D
:100D10000289A4EB0A044C45C2464B4654D351D039
:100D2000002E69D0B1EB0A0564EB030404FA0CFC55
:100D3000FD40FC404CEA0505C6E90054002747E7A2
:100D4000C2F1200320FA03F7954001FA02F021FADC
:100D500003F34FEA154E3843010CB3FBFEF71FFABD
:100D600085F80EFB173341EA034107FB08F38B427A
:100D700004FA02F407D9691807F1FF3C2FD28B421D
:100D80002DD9023F2944CB1A81B2B3FBFEF00EFBF2
:100D9000103341EA034100FB08F38B4207D969187D
:100DA00000F1FF3C17D28B4215D902382944C91AE9
:100DB00040EA07473BE73746304609E70746E7E69C
:100DC0001846FBE64145ABD2B8EB020A69EB0E02CE
:100DD00001381346A4E76046E9E7184695E76746F9
:100DE000D1E781467CE702382C4447E7ACF1020C9E
:100DF0002B442FE7384608E73746E9E600000000B5
:100E0000704700BF0000000000000000000000006C
:100E1000844641EA000313F003036DD1403A41D305
:100E200051F8043B40F8043B51F8043B40F8043BC4
:100E300051F8043B40F8043B51F8043B40F8043BB4
:100E400051F8043B40F8043B51F8043B40F8043BA4
:100E500051F8043B40F8043B51F8043B40F8043B94
:100E600051F8043B40F8043B51F8043B40F8043B84
:100E700051F8043B40F8043B51F8043B40F8043B74
:100E800051F8043B40F8043B51F8043B40F8043B64
:100E900051F8043B40F8043B51F8043B40F8043B54
:100EA000403ABDD2303211D351F8043B40F8043BF4
:100EB00051F8043B40F8043B51F8043B40F8043B34
:100EC00051F8043B40F8043B103AEDD20C3205D304
:100ED00051F8043B40F8043B043AF9D2043208D0FC
:100EE000D2071CBF11F8013B00F8013B01D30B886E
:100EF00003806046704700BF082A13D38B078DD04C
:100F000010F003038AD0C3F10403D21ADB071CBF1D
:100F100011F8013B00F8013B80D331F8023B20F887
:100F2000023B7BE7043AD9D3013A11F8013B00F8C0
:100F3000013BF9D20B7803704B7843708B78837048
:100F40006046704700000000000000000000000044
:100F500090F800F06DE9024520F007016FF0000CF9
:100F600010F0070491F820F040F049804FF00004A1
:100F70006FF00700D1E9002391F840F000F108007C
:100F800082FA4CF2A4FA8CF283FA4CF3A2FA8CF3B4
:100F90004BBBD1E9022382FA4CF200F10800A4FA1B
:100FA0008CF283FA4CF3A2FA8CF3E3B9D1E904236F
:100FB00082FA4CF200F10800A4FA8CF283FA4CF3A6
:100FC000A2FA8CF37BB9D1E9062301F1200182FA60
:100FD0004CF200F10800A4FA8CF283FA4CF3A2FA66
:100FE0008CF3002BC6D0002A04BF04301A4612BA74
:100FF000B2FA82F2FDE8024500EBD2007047D1E977
:10100000002304F00305C4F100004FEAC50514F005
:10101000040F91F840F00CFA05F562EA05021CBFD6
:1010200063EA050362464FF00004A9E700000000F0
:1010300001F0FF01102A2BDB10F0070F08D010F889
:10104000013B013A8B422DD010F0070F42B3F6D18D
:10105000F0B441EA012141EA014122F007047FF0A6
:1010600000070023F0E80256083C85EA010586EAFD
:10107000010685FA47F5A3FA87F586FA47F6A5FA39
:1010800087F68EB9EED1F0BC01F0FF0102F0070245
:1010900032B110F8013B013A83EA010313B1F8D1F0
:1010A0000020704701387047002D06BF35460338D1
:1010B000073815F0010F07D1013015F4807F02BF0A
:1010C000013015F4C03F0130F0BC0138704700BF5B
:1010D0004FF0FF3C06E000BF4FF0010C02E000BF04
:1010E0004FF0010C4DF804CD4FEA410C7FEA6C5CE7
:1010F0004FEA430C18BF7FEA6C5C1BD001B050EA8A
:10110000410C0CBF52EA430C91EA030F02BF90EA74
:10111000020F0020704710F1000F91EA030F58BF33
:10112000994208BF90422CBFD8176FEAE37040F095
:10113000010070474FEA410C7FEA6C5C02D150EA33
:10114000013C07D14FEA430C7FEA6C5CD6D152EAEE
:10115000033CD3D05DF8040B704700BF84461046B3
:1011600062468C461946634600E000BF01B5FFF7B2
:10117000B7FF002848BF10F1000F01BD4DF808ED82
:10118000FFF7F4FF0CBF012000205DF808FB00BF53
:101190004DF808EDFFF7EAFF34BF012000205DF8AD
:1011A00008FB00BF4DF808EDFFF7E0FF94BF0120FA
:1011B00000205DF808FB00BF4DF808EDFFF7CEFFFB
:1011C00094BF012000205DF808FB00BF4DF808ED3A
:1011D000FFF7C4FF34BF012000205DF808FB00BF0B
:1011E0004FEA410C7FEA6C5C02D150EA013C0AD123
:1011F0004FEA430C7FEA6C5C02D152EA033C02D115
:101200004FF0000070474FF00100704700000000F1
:1012100030B5124B9BB01B68199303F079FD01F0B8
:10122000DFFC00F0A5FF01F003FA01F099FA00F0ED
:1012300007FF01F0EDFB0A4D4FF47A7002F0E8FA77
:101240000FCD6C460FC495E8030044F8040B6846C4
:101250002180152100F07CFEEDE700BF0008002092
:10126000D0D90008000000000000000000000000CD
:1012700000B5084B83B01A680192019A1B689A4224
:1012800005D1054803B05DF804EB01F011BDFFF78F
:10129000EFFF00BF00080020B0D9000800000000E8
:1012A00030B5104D81682B680F4A83B001930B68ED
:1012B00023F001030B608168946A03E0936A1B1BAF
:1012C000C72B09D8086810F00100F7D1019A2B68E4
:1012D0009A4204D103B030BD4FF0FF30F6E7FFF77C
:1012E000C7FF00BF00080020F83A002000000000FF
:1012F00070B51C4E82B03368019311F00C0F0D468F
:10130000044610D0C268117A52683D238B401360A6
:101310000378032B21D0062263682270DB6813B1A7
:10132000002120469847AA060BD563685B6873B115
:1013300001993268914213D1204602B0BDE8704055
:101340001847EB0603D563689B68002BF0D1019A20
:1013500033689A4204D102B070BDFFF7A1FFDAE70B
:10136000FFF786FF000800200000000000000000DA
:10137000F0B5284D83B02B68019302F0E9FC01F031
:10138000B7FD254B1E69F20715D55A69234C42F06B
:1013900001025A612778BB1F012B2AD905226368F5
:1013A00022701B680BB120469847042F27D0022FCC
:1013B00025D003232370B30710D5174A174C536960
:1013C00043F0020353612378032B1DD06368DB686D
:1013D0000622227013B101211048984701F0B0FD98
:1013E000019A2B689A4213D103B0BDE8F04003F094
:1013F0004FBC019A2B689A420AD103B0F0BD022378
:101400002370B307EAD5D8E72046FFF749FFDDE7A9
:10141000FFF72EFF0008002000000550F01100200B
:101420002DE9F0412F4C0578266882B0012D0196F8
:1014300006D0019A23689A4252D102B0BDE8F081E9
:10144000294DA842F5D10E4690461F46274AE86826
:101450002B460C2105F074FD002839D1D5E9023264
:10146000126828339360EB681A68042151611B6885
:10147000C3F80C80EB681A6817611B68B6085E60D9
:101480002B694FB343F480232B61E968184A09683C
:101490000B60EB6819680B6843F001030B60536B3A
:1014A00043F0010353630B214E2005F029FAD5E9DF
:1014B0000113DA6842F00102DA60DA6842F00202EF
:1014C000DA600A6922F4804222F001021A60B0E771
:1014D000084801F0EDFBC1E723F480232B61D4E73A
:1014E000FFF7C6FE00080020F0110020F1120008EE
:1014F00000380240F0D900080000000000000000A1
:1015000030B5184C0378226883B0022B019205D0C5
:10151000019A23689A4223D103B030BD124B9842FE
:101520000546F5D18168114A0B6823F4804323F006
:1015300001030B608168CB6823F00F03CB60536B12
:1015400023F0010353634E2005F002FA019A236849
:101550009A4205D1E86803B0BDE8304005F058BDB7
:10156000FFF786FE00080020F0110020003802403E
:1015700000B50F4B0278196883B0022A01910ED191
:1015800081680A6842F002020A6081680A6842F4CF
:1015900080420A6081680A6842F001020A60019A8A
:1015A0001B689A4202D103B05DF804FBFFF760FEAE
:1015B0000008002000000000000000000000000003
:1015C00000B50F4B0278196883B0022A01910ED141
:1015D00081680A6822F002020A6081680A6842F49F
:1015E00080420A6081680A6842F001020A60019A3A
:1015F0001B689A4202D103B05DF804FBFFF738FE86
:1016000000080020000000000000000000000000B2
:101610002DE9F043254D83B02C680194DDF8289026
:101620000F4616469846044618B111B1204B9A420F
:101630002FD9204801F03CFB202383F3118802F0CE
:10164000BFFB01F0D5FB2378012B02D0194801F034
:101650002FFB4246314620464B466760FFF7E0FECF
:101660000223237001F0E4FB02F0C2FB124B1A6864
:101670009A4204D0996993688A689A420FD30023EA
:1016800083F31188019A2B689A420CD103B0BDE80C
:10169000F0839307CDD1B8F1000FCDD1C9E707484A
:1016A00001F006FBEBE7FFF7E3FD00BF00080020B9
:1016B000FCFF030020DA0008F83A002010DA0008E6
:1016C00030B51C4D83B02B680193044658B32023DA
:1016D00083F3118802F074FB01F08AFB2378022B5C
:1016E00002D0154801F0E4FA2046FFF709FF012374
:1016F000237001F09DFB02F07BFB104B1A689A42AD
:1017000004D0996993688A689A4208D3002383F3C6
:101710001188019A2B689A4209D103B030BD08485C
:1017200001F0C6FAF2E7044801F0C2FACFE7FFF78A
:101730009FFD00BF0008002030DA0008F83A0020C2
:1017400010DA0008000000000000000000000000A7
:1017500030B51C4D83B02B680193044658B3202349
:1017600083F3118802F02CFB01F042FB2378022B5B
:1017700002D0154801F09CFA2046FFF7F9FE042339
:10178000237001F055FB02F033FB104B1A689A42AC
:1017900004D0996993688A689A4208D3002383F336
:1017A0001188019A2B689A4209D103B030BD0848CC
:1017B00001F07EFAF2E7044801F07AFACFE7FFF78A
:1017C00057FD00BF0008002040DA0008F83A00206A
:1017D00010DA000800000000000000000000000017
:1017E00030B51C4D83B02B680193044658B32023B9
:1017F00083F3118802F0E4FA01F0FAFA2378022B5D
:1018000002D0154801F054FA2046FFF7D9FE032311
:10181000237001F00DFB02F0EBFA104B1A689A42AC
:1018200004D0996993688A689A4208D3002383F3A5
:101830001188019A2B689A4209D103B030BD08483B
:1018400001F036FAF2E7044801F032FACFE7FFF789
:101850000FFD00BF0008002060DA0008F83A002001
:1018600010DA000800000000000000000000000086
:1018700030B51A4D83B02B680193044638B320234A
:1018800083F3118802F09CFA01F0B2FA0223204699
:101890002370FFF735FE0123237001F0C9FA02F02F
:1018A000A7FA0F4B1A689A4204D0996993688A681C
:1018B0009A4208D3002383F31188019A2B689A4235
:1018C00009D103B030BD074801F0F2F9F2E706484C
:1018D00001F0EEF9D3E7FFF7CBFC00BF00080020D2
:1018E000F83A002010DA000870DA00080000000062
:1018F00000B5074B07491A68087083B00192019A36
:101900001B689A4202D103B05DF804FBFFF7B0FCFC
:101910000008002004120020000000000000000069
:1019200000B5174B174A93F90030116883B0019145
:1019300001995BB1012B18D0022B13680ED099428C
:101940004FF0000019D103B05DF804FB1368994211
:1019500013D103B05DF804EB00F0DABA99420CD170
:1019600003B05DF804EB00F093BA1368994204D118
:1019700003B05DF804EB00F0ABBAFFF779FC00BFF1
:101980000408002000080020000000000000000003
:1019900010B51B4B1B4C93F90030226882B00192AA
:1019A000B3B1012B21D0022B06D00020019A23686D
:1019B0009A4223D102B010BD134B1B788BB1019A10
:1019C00023689A421AD102B0BDE8104000F060BA14
:1019D000019A23689A4211D102B0BDE8104000F08C
:1019E00097BA00F055FA4000E0E7019A23689A425E
:1019F00004D102B0BDE8104000F06ABAFFF738FC2D
:101A00000408002000080020050800200000000055
:101A1000F0B5124F83B03B68019300F051F9104BC1
:101A200093F90030022B064606D0019A3B689A4291
:101A3000304610D103B0F0BD0A4B1C7824B1F4E756
:101A4000735D33550134A4B2FFF7A2FF6500ADB258
:101A50008542F5D3E9E7FFF70BFC00BF0008002043
:101A6000040800200508002000000000000000001D
:101A700000B5084B08491A6883B000200192019A0A
:101A80001B6808709A4202D103B05DF804FBFFF7AF
:101A9000EFFB00BF000800200B1200200000000038
:101AA00010B5104C82B023680193202383F3118872
:101AB00002F0B6F901F0DCF90B4B0C4801221A7068
:101AC00002F0FEFB01F0F4F902F0C2F9002383F307
:101AD0001188019A23689A4201D102B010BDFFF724
:101AE000C7FB00BF000800201412002008080020D7
:101AF00010B50F4C0F4B2268197082B02023019251
:101B000083F3118802F08CF901F0B2F90A4802F06F
:101B1000D7FB01F0CDF902F09BF9002383F3118884
:101B2000019A23689A4201D102B010BDFFF7A0FBD1
:101B30000008002008120020080800200000000013
:101B400000B51F4A1F4B127818681F4983B00190D7
:101B500001208242087006D0019A1B689A422CD15B
:101B600003B05DF804FB1949194A0978D26881422B
:101B7000126811D0174818490078096801281068C0
:101B800006D000030ED51069884212D0D160E3E779
:101B90000003FBD41161DFE71068104900030968F6
:101BA000F8D5F3E7D0688842F4D10C49096811618F
:101BB000D2E70A490968D160CEE7FFF759FB00BFB9
:101BC0000A120020000800200B120020051200203D
:101BD000F0110020061200200C120020101200202C
:101BE00030B51B4D1B4C2B78226885B0012B03921E
:101BF00025D0FFF7CDFE184B1B78024653B9B0F540
:101C0000164F20D8154900930B6815481549FFF762
:101C1000FFFC0BE0B0F5964F15D813490F4B096840
:101C20001B680F4800910F49FFF7F2FC01232B704E
:101C30000020039A23689A4208D105B030BD0848B5
:101C4000FFF73EFDD5E74FF0FF30F2E7FFF710FB5F
:101C500009120020000800200A1200200C120020A7
:101C6000F011002080DA00081012002000000000AF
:101C700010B50F4C0F48236882B0019302F0E8F9C9
:101C80000D4802F08DFB0D4B0A481B7843B102F062
:101C900017FA0020019A23689A4206D102B010BDBB
:101CA00002F00EFA4FF0FF30F4E7FFF7E1FA00BF61
:101CB000000800201008002008080020141200204E
:101CC00070B5294B294C1878294D236882B00193AF
:101CD0002B7858B9012B03D0264A012310682B70AA
:101CE000019A23689A423DD102B070BD012B37D0D2
:101CF000214E3378012B33D0204B1B78FBB9204B7E
:101D00001C4ADB6811681B681A68100307D5DA687B
:101D10008A424FF0010221D03270D868E0E71A6998
:101D20008A424FF0010208D032701869D8E71A6968
:101D3000096891424FF00102F6D12A70F5E7FFF7EA
:101D400097FF0F4B0B49DB681B681A681203EED52F
:101D5000DA68096891424FF00102DDD12A70DCE7B0
:101D60000020BDE7FFF784FA0A12002000080020D7
:101D7000051200200C120020061200200B12002079
:101D8000F011002000000000000000000000000032
:101D900010B5084B084C1A68084882B001920199A6
:101DA0001A68002391422370037001D102B010BD64
:101DB000FFF75EFA0008002005120020061200203E
:101DC00010B5174A174B1278196882B00191F2B119
:101DD000154A1648164C11780022027022701548D8
:101DE00051B101991B680270994216D1124802B094
:101DF000BDE81040FFF7F4BC019A1B6801709A42DD
:101E00000BD10D4802B0BDE81040FFF7A1BC019A0C
:101E10001B689A4201D102B010BDFFF729FA00BF3A
:101E200009120020000800200712002006120020DE
:101E30000512002014120020F01100200000000004
:101E400010B50D4B0D4C1A78216882B0012A019112
:101E500008D0019A23689A420CD102B0BDE8104024
:101E6000FFF7BEBE0649074800220A701A70FFF746
:101E7000FFFCEEE7FFF7FCF9091200200008002044
:101E800008120020F01100200000000000000000F7
:101E900010B50A4B0A4A1988146858881B7982B011
:101EA000022B019400FB01F00199136818BF400058
:101EB000994201D102B010BDFFF7DAF918120020E3
:101EC00000080020000000000000000000000000EA
:101ED00010B50A4B0A4A1988146858881B7982B0D1
:101EE0000D2B019400FB01F00199136818BF40000D
:101EF000994201D102B010BDFFF7BAF920120020BB
:101F000000080020000000000000000000000000A9
:101F100010B50A4B0A4A1988146858881B7982B090
:101F2000442B019400FB01F00199136818BF400095
:101F3000994201D102B010BDFFF79AF92812002092
:101F40000008002000000000000000000000000069
:101F500010B50A4B82B01A680192019C1B689C4222
:101F60000AD1074B1C6824680A46014618462346D6
:101F700002B0BDE810401847FFF77AF900080020CA
:101F80002C490020000000000000000000000000BC
:101F900070B5294D82B02B6801930E46032841D8B5
:101FA000DFE800F01A120A02012922D9234A5369F4
:101FB00083F40063536116E0012926D91F4A53694F
:101FC00083F4806353610EE0012918D91B4A5369D9
:101FD00083F04003536106E001291CD9174A536975
:101FE00083F020035361019A2B689A4218D102B002
:101FF00070BD124B4FF4006229B15A83F3E70F4BC7
:1020000040220029F9D11A83EDE70C4B4FF480628E
:102010000029F8D0F1E7094B20220029F3D0ECE7A2
:10202000FFF726F90024E0B231460134FFF7B0FF94
:10203000042CF8D1D7E700BF00080020000C0240B4
:10204000F0B5104F104C3B6883B0002501932E462D
:102050000021E8B2FFF79CFF00F01AFD68B10135DE
:10206000042D26706670A67004F10304F0D1019A65
:102070003B689A4204D103B0F0BD00F0F1FCEEE7FA
:10208000FFF7F6F8000800203012002000000000E2
:1020900030B5094B094D044607CB83B02B6801933B
:1020A000206001982B6861609842A26001D103B062
:1020B00030BDFFF7DDF800BF30120020000800201F
:1020C0002DE9F043254E83B034680194042A9DF82D
:1020D0002890144605460F46984639D9B9F1000FA5
:1020E00014BF00224FF08052640002EB0863013CF1
:1020F0001C4405F00F0527F01F07202383F31188E8
:1021000001F05EFE3D4300F073FE154B1035DD60BF
:102110001C6100F08DFE01F06BFE124B1A689A42B2
:1021200004D0996993688A689A420DD3002383F397
:102130001188BFF36F8FBFF34F8F019A33689A42B4
:102140000AD103B0BDE8F083074800F0B1FDEDE728
:10215000064800F0ADFDC1E7FFF78AF8000800204F
:1021600090ED00E0F83A002020DB000800DB0008DA
:1021700030B5224D224C2B68224A85B00393636808
:1021800043F004036360536A43F4803353622023B3
:1021900083F3118801F014FE00F02AFE17221A4B77
:1021A000E260236100F044FE01F022FE174B1A6842
:1021B0009A4204D0996993688A689A4218D3002099
:1021C00080F31188BFF36F8FBFF34F8F03231D225E
:1021D00000904FF00051FFF773FF094A536843F036
:1021E00001035360039A2B689A4205D105B030BDB4
:1021F000074800F05DFDE2E7FFF73AF8000800202D
:1022000090ED00E000ED00E009000010F83A002039
:1022100020DB0008000000000000000000000000BB
:1022200070B51A4D1A4C1B4E0FCD0FC49EB02A68C4
:10223000336822801D93EFF30981682203A8FEF71B
:10224000E7FD154B9D6AAA0714D4EB0708D5124B7E
:1022500008995B6B114A00910D48802108F028FA1B
:102260001D9A33689A420FD109481EB0BDE87040EC
:1022700000F01EBD099A5B6B0092A4F11000084AA1
:10228000802108F015FAE0E7FEF7F2FFE4DA000833
:102290003C1200200008002000ED00E0C0DA000839
:1022A000A0DA0008000000000000000000000000AC
:1022B00000B51F4B0278196883B00191E2B11D4A45
:1022C0004FF4005111834278EAB11A4A4FF4805119
:1022D00011838278F2B1174A4FF480411183C2789A
:1022E000FAB9144A4FF400415183019A1B689A428B
:1022F0001CD103B05DF804FB0E4A4FF4005151832A
:102300004278002AE1D10B4A4FF480515183827800
:10231000002AE0D1074A4FF480415183C278002A55
:10232000DFD0044A4FF400411183DEE7FEF7A0FF3F
:102330000008002000100240000000000000000023
:1023400000B51F4B0278196883B00191E2B11D4AB4
:102350004FF4007111834278EAB11A4A4FF4807148
:1023600011838278F2B1174A4FF400611183C27869
:10237000FAB9144A4FF480615183019A1B689A425A
:102380001CD103B05DF804FB0E4A4FF40071518379
:102390004278002AE1D10B4A4FF480715183827850
:1023A000002AE0D1074A4FF400615183C278002A25
:1023B000DFD0044A4FF480611183DEE7FEF758FF57
:1023C0000008002000100240000000000000000093
:1023D00030B50C4A0C4B116883B04FF40055019195
:1023E0004FF480544FF400414FF480405D835C8390
:1023F0005883598301991368994201D103B030BDC4
:10240000FEF736FF00080020001002400000000028
:1024100030B50C4A0C4B116883B04FF40075019134
:102420004FF480744FF480614FF400605D835C83EF
:102430005883598301991368994201D103B030BD83
:10244000FEF716FF00080020001002400000000008
:1024500010B50B4C0B48236882B0992200210193E0
:1024600002F026FF019A23689A4206D1054800210E
:1024700002B0BDE8104003F003B8FEF7F9FE00BF5C
:1024800000080020D84800200000000000000000E4
:1024900010B50B4C0B48236882B0992200210193A0
:1024A00002F006FF019A23689A4206D105480021EE
:1024B00002B0BDE8104002F0E3BFFEF7D9FE00BF56
:1024C00000080020F4480020000000000000000088
:1024D00000B5084B83B01A680192019A1B689A42B2
:1024E00006D10548002103B05DF804EB02F030BFCF
:1024F000FEF7BEFE00080020D848002000000000C3
:1025000000B5084B83B01A680192019A1B689A4281
:1025100006D10548002103B05DF804EB02F018BFB6
:10252000FEF7A6FE00080020F4480020000000008E
:1025300070B51A4C1A4E2378326882B0022B019281
:10254000A26811D165781748013505F0070500EB41
:102550008500904763686570013B6360019A33684A
:102560009A4219D102B070BD012B08D0019933688D
:10257000994211D10C4802B0BDE87040104765780F
:102580000848013D05F0070500EB850090476368AA
:10259000657001336360E1E7FEF76AFED812002040
:1025A00000080020C0DB0008B0DB000800000000CD
:1025B00070B51A4C1A4E2378326882B0012B019202
:1025C000A26811D165781748013505F0070500EBC1
:1025D000850090476368657001336360019A3368D2
:1025E0009A4219D102B070BD022B08D0019933680C
:1025F000994211D10C4802B0BDE87040104765788F
:102600000848013D05F0070500EB85009047636829
:102610006570013B6360E1E7FEF72AFEBC12002013
:1026200000080020C0DB0008B0DB0008000000004C
:1026300070B51D4E1D4A1E4B30681E491E4C9160E0
:1026400082B00021D46001901C4C1D481D4D9D603E
:10265000117051705160106154611B481B4A1C4D30
:10266000D8601C48197059705960C3E90425FFF7F8
:102670001FFE1848FFF764FE1749204602F0C8FD08
:10268000204602F0B5FE2846144902F0C1FD019A29
:1026900033689A4205D1284602B0BDE8704002F086
:1026A000A7BEFEF7E5FD00BF00080020D8120020FD
:1026B000BC120020B122000851240008D848002094
:1026C000D1240008412300089124000801250008B6
:1026D000F4480020B0DB000870DB000830DB0008A5
:1026E0000A490B4B09680B4A82B020200191402116
:1026F00058834FF4806559834FF400644FF4804051
:1027000004215D835C8358835183FEE70008002029
:10271000000C024000040240000000000000000025
:1027200000B50A4B0A481B680A4C87B069460593F6
:1027300001224FF4F07301F06BFE012001F050FF15
:10274000684601F0ADFE2060F7E700BF00080020FA
:1027500030490020F41200200000000000000000BA
:1027600010B50C4C0C4923680C4884B0039303F05B
:102770006FFB002300934022094B0A484FF41E715F
:1027800000F0EEFF039A23689A4201D104B010BD15
:10279000FEF76EFD00080020240800202C490020D0
:1027A00021270008F81200200000000000000000AF
:1027B0002DE9F04F884C894AA369894912689961CB
:1027C00085B0002332200392029301F021F8DFF854
:1027D0003082DFF830A2DFF81C92DFF80CB220253F
:1027E00085F3118801F0ECFA00F002FBA66A00F014
:1027F0001FFB01F0FDFA2368A34207D0A2699B6882
:1028000092689A4202D2774800F052FA002383F38A
:10281000118885F3118801F0D3FA00F0E9FA98F8ED
:102820000030012B00F0A38000F002FB01F0E0FA81
:102830002368A34207D0A2699B6892689A4202D299
:10284000684800F035FA002383F311889AF80030C5
:10285000012B06D1FFF7B4FAFFF70AFA002840F07F
:102860008A8040F6FC72FF215F4807F0D1FE5F4B83
:102870001B78012B77D04FF06533C9E90033C9F8D5
:1028800008305B4803F0ECFB574B5A4A58480C2180
:1028900003F066FC564803F023FC00230293029BDE
:1028A00042F20F72934206D800BF029B013302939B
:1028B000029B9342F8D99BF80000FFF719F89AF8A9
:1028C0000030012B49D19BF80130B72B88D1FFF79D
:1028D00027F8494E8308A6FB0323C3F3CF170097BD
:1028E000FFF71EF88308A6FB0323DB09C3EB832352
:1028F000A0EB83030193FFF78BF8404B18603FB3C5
:1029000000273E463A4803F0ABFB3C4B38481A6878
:10291000354B3A4440F6FC7103F022FC344803F096
:10292000DFFB00230293062E029B48D943F6972231
:10293000934206D800BF029B01330293029B93424D
:10294000F8D90136009AB3B29A4207F6FC77D9D883
:10295000019B9BB9FFF71CFA42E706F132013046B2
:1029600000F096FF3CE72348FFF792FB89E703203E
:1029700000F0D6FC58E7FFF763FA31E71C4803F094
:102980006FFB1E4B009A1E681948174B0199C2EB4A
:10299000822206EB820203F0E3FB154803F0A0FB62
:1029A00000230293029B43F697229342D2D800BFA2
:1029B000029B01330293029B9342F8D9CAE741F28A
:1029C00087329342BDD800BF029B01330293029B22
:1029D0009342F8D9B5E700BFF83A0020000800207C
:1029E00000DC0008E0DB00087C15002078150020E2
:1029F00054480020F82A0020010208207415002005
:102A00007825002070150020000000000000000064
:102A100010B50D4C0D4923680D4884B0039303F0A5
:102A2000D7FA0023009340220A4B0B484FF4AF61C2
:102A300000F096FE039A236808499A42086001D183
:102A400004B010BDFEF714FC00080020F0DB000805
:102A500054480020B1270008802500207C25002054
:102A600000B5084B08491A6883B001200192019A09
:102A70001B6808709A4202D103B05DF804FBFEF7B0
:102A8000F7FB00BF000800207815002000000000C0
:102A900000B5074B07491A68087883B00192019A7C
:102AA0001B689A4202D103B05DF804FBFEF7E0FB1D
:102AB0000008002078150020000000000000000041
:102AC00000B5084B83B01A680192019A1B689A42BC
:102AD00005D1054803B05DF804EB01F0B9BAFEF783
:102AE000C7FB00BF000800203008002000000000E5
:102AF00000B5084B83B01A680192019A1B689A428C
:102B000005D1054803B05DF804EB01F0D9BAFEF732
:102B1000AFFB00BF000800203008002000000000CC
:102B200070B50D4C82B0236801930D1E06460DDD75
:102B3000284602F025F818B90C2333604FF0FF3017
:102B4000019A23689A4205D102B070BD034800F093
:102B5000AFF8EDE7FEF78CFB0008002010DC000862
:102B600000B5064B83B01A680192019A1B689A421D
:102B700002D103B05DF804FBFEF77AFB00080020E9
:102B800000B5064B83B01A680192019A1B689A42FD
:102B900002D103B05DF804FBFEF76AFB00080020D9
:102BA000024B82B01B680193FEE700BF00080020C3
:102BB00000B5044B04481B6883B0019300F078F81B
:102BC000FEE700BF0008002020DC00080000000035
:102BD000024B82B01B680193FEE700BF0008002093
:102BE000F0B5294E294B3268294885B0002403925C
:102BF0009C60D968274A4FF6FF0529400A43DA60EE
:102C0000C2682549254D42F08072C2600A6842F0D0
:102C100001020A6010202022D87783F8222000F0D9
:102C2000DFFA00F045FA01F01BF801F081FF01F036
:102C3000EFFF01F06DF800F0FBF9402105F5886029
:102C400000F0F6FC0127164BC36180F82070A861E4
:102C500000F0A6F884F3118862B6AB69114A9A6154
:102C60004FF4C4713A46104B009405F59D6000F096
:102C700077FD039A33680D4981619A4201D105B00D
:102C8000F0BDFEF7F5FA00BF0008002000ED00E0FF
:102C9000F0ED00E00003FA05001000E0F83A002033
:102CA00000040020A0DD0008D12B000840DC000853
:102CB00000B5054B83B01B680193044672B6FFF75D
:102CC0000FFD024BDC62FEE700080020F83A00200E
:102CD0002DE9F047DFF890A0224DDAF8003082B0FD
:102CE000019300F055F9AB6993F8232012B1013A32
:102CF00083F823205A6ADFF8748001325A6200F0A8
:102D000047F9AB6AEA6901334245AB6220D0936868
:102D1000013B9360EC69A668D6B94FF0200923689F
:102D2000E768E660C3F804802368EB6100F0C0F850
:102D300001F08EF886F311882069B84789F311886D
:102D400001F06EF800F094F8EC69A368002BE6D06F
:102D5000019ADAF800309A4202D102B0BDE8F08759
:102D6000FEF786FAF83A002000080020143B002005
:102D700010B5094C094A236882B001935168536821
:102D80005B1A9842FBD8019A23689A4201D102B09B
:102D900010BDFEF76DFA00BF00080020001000E033
:102DA00000B50E4A0E4B116B186883B0019009B93B
:102DB000526B4AB1019A1B689A420CD1094803B080
:102DC0005DF804EBFFF774BF019A1B689A4202D1C9
:102DD00003B05DF804FBFEF74BFA00BFF83A0020A1
:102DE0000008002050DC0008000000000000000087
:102DF00030B50B4C0B4D236B2A6883B001920BB995
:102E0000636B13B10848FFF753FF019A2B68012148
:102E10009A42616301D103B030BDFEF729FA00BFC9
:102E2000F83A00200008002080DC000800000000C4
:102E300030B50C4C0C4D236B2A6883B0019253B90A
:102E4000636B002B07DD019A2B6800219A426163B6
:102E500005D103B030BD0548FFF72AFFF3E7FEF7C1
:102E600007FA00BFF83A002000080020A0DC0008A4
:102E700030B50B4C0B4D236B2A6883B0002B0192AD
:102E800001DD636B13B10848FFF712FF019A2B684D
:102E900001219A42616301D103B030BDFEF7E8F928
:102EA000F83A00200008002090DC00080000000034
:102EB00030B50C4C0C4D236B2A6883B0002B01926B
:102EC0000ADD636B002B07DD019A2B6800219A4213
:102ED000616305D103B030BD0448FFF7E9FEF3E7B5
:102EE000FEF7C6F9F83A002000080020B0DC000820
:102EF00030B50F4D83B02B680193202383F31188E5
:102F00000C4C236B002B01DB626B1AB10A48FFF7F4
:102F1000CFFE236B01332363002383F31188019ACF
:102F20002B689A4201D103B030BDFEF7A1F900BF72
:102F300000080020F83A002060DC000800000000D3
:102F400030B50F4D83B02B680193202383F3118894
:102F50000C4C236B002B01DD626B1AB10A48FFF7A2
:102F6000A7FE236B013B2363002383F31188019A9F
:102F70002B689A4201D103B030BDFEF779F900BF4A
:102F800000080020F83A002070DC00080000000073
:102F900000B50F4A0F4B116B186883B000290190E0
:102FA00009DB526B002A06DD019A1B689A420CD19C
:102FB00003B05DF804FB019A1B689A4205D10648EC
:102FC00003B05DF804EBFFF773BEFEF751F900BFE5
:102FD000F83A002000080020C0DC000800000000D3
:102FE00000B50E4A0E4B116B186883B0019049B9B9
:102FF000526B002A06DD019A1B689A420CD103B07D
:103000005DF804FB019A1B689A4205D1054803B09C
:103010005DF804EBFFF74CBEFEF72AF9F83A002002
:1030200000080020D0DC00080000000000000000C4
:1030300010B5084A084B116882B0402401910199EB
:10304000126818199142C3E90E4001D102B010BDB7
:10305000FEF70EF900080020F83A002000000000FA
:1030600010B51149114B0A6882B00192DA6B9C6A63
:103070001460DA6B9C695460DA6B846A9460DA6B72
:1030800090F820001073DA6B03F5886010328242EA
:1030900028BF03F14002DA63019A0B689A4201D11A
:1030A00002B010BDFEF7E4F800080020F83A002056
:1030B00010B50B4A0B4B116882B04FF0FF340191F1
:1030C00000219962019811685C6203F11C02884238
:1030D000C3E9072201D102B010BDFEF7C9F800BF55
:1030E00000080020F83A0020000000000000000066
:1030F0002DE9F041184E82B00546306801900C462B
:1031000017469846FFF744FF05B3FFB1F4B1C5E990
:1031100003781248C3699A68944204D91B68A41AB8
:103120009A68A242FAD32B605A686A6015605D60A3
:10313000AC609968019D3268091B95424FF0FF34DD
:103140009960446206D102B0BDE8F0810448FFF7FF
:10315000AFFDDCE7FEF78CF800080020F83A00200D
:10316000E0DC00080000000000000000000000009B
:1031700030B5164D83B004462B680193FFF708FF66
:10318000ECB1E368BBB12268A0689368019903447D
:103190009360D4E900231A6020682B680C4A6568A4
:1031A000456099424FF000054FF0FF30E5605062F6
:1031B00009D103B030BD0748FFF77AFDE3E70548C2
:1031C000FFF776FDDDE7FEF753F800BF00080020AB
:1031D000F83A0020F0DC00080000000000000000C9
:1031E00000B50A4A0A4B11681B6083B000200191A8
:1031F000019912685B609142C3E90433986002D17F
:1032000003B05DF804FBFEF733F800BF00080020B0
:10321000F83A00200000000000000000000000005C
:1032200030B5164D83B004462B680193FFF7B0FE0E
:10323000ECB194F82030B3B10F2B14D00022A16868
:103240000F4B84F820201B689A688A42FBD22360C7
:103250005A686260146001992A685C609142204655
:1032600009D103B030BD0748FFF722FDE6E7054866
:10327000FFF71EFDDDE7FDF7FBFF00BF00080020A4
:10328000F83A002000DD0008000000000000000007
:1032900070B5204D82B02B6801930446202383F340
:1032A000118800F0BDFDFFF7E3FD94F82030072BF7
:1032B00011D8DFE803F0161010230A04100AA66ADA
:1032C000FFF766FEB3680133B360D4E900231A60E8
:1032D000D4E900325A604FF0FF33A3622046FFF773
:1032E0009FFFFFF7E5FD00F0B3FD002383F3118896
:1032F000019A2B689A420BD102B070BDA36A0022DA
:103300001A604FF0FF33A3622046FFF789FFE8E71A
:10331000FDF7AEFF000800200000000000000000E4
:10332000F0B5194E194C336883B007460193FFF787
:1033300057FEA569236885F82070142285F823209C
:103340001A68226001215460284683F82010A36186
:10335000FFF786FE2946A06900F012FDEFF309830E
:10336000EA69643B9A4202D90948FFF7A1FC019A35
:1033700033689A4206D1A069294603B0BDE8F040FF
:10338000FCF796BFFDF774FF00080020F83A002014
:1033900010DD000800000000000000000000000038
:1033A000F0B5154C87B0236805930E460746FFF726
:1033B00017FE731C18D0114D114AAB69314668468F
:1033C000FFF796FE3846FFF7ABFFFFF7E1FD039BE3
:1033D00013B16846FFF7CCFE059A2368A9699A42A3
:1033E000886A06D107B0F0BD3846FFF799FF034D54
:1033F000F2E7FDF73DFF00BF00080020F83A00208B
:1034000091320008000000000000000000000000F1
:10341000F0B51E4D1E4E2B6883B0044601930F4637
:10342000FFF7DEFDB069A7628368A2689A421DD9E2
:10343000FFF7F6FE0123074684F82030B461FFF75A
:103440000FFE3946204600F09BFCEFF30983FA6932
:10345000643B9A4214D8019A2B689A4214D1394697
:10346000204603B0BDE8F040FCF722BF019A2B686C
:103470009A4209D1204603B0BDE8F040FFF7D0BE24
:103480000448FFF715FCE6E7FDF7F2FE0008002010
:10349000F83A002010DD00080000000000000000E5
:1034A00010B50E490E4B8A69086892F823101C6803
:1034B0008068926882B0019449B9904234BF00207C
:1034C0000120019A1B689A4206D102B010BD9042B9
:1034D00094BF00200120F4E7FDF7CAFEF83A00206F
:1034E00000080020000000000000000000000000B4
:1034F00070B5184C184E2368A5691A68226054608C
:10350000012283F8202082B01422316885F823201C
:103510002846A3610191FFF783FE2846FFF7A0FD2F
:103520002946A06900F02CFCEFF30983EA69643BAB
:103530009A4202D90948FFF7BBFB019A33689A42C5
:1035400006D1A069294602B0BDE87040FCF7B0BEC4
:10355000FDF78EFEF83A00200008002010DD00087C
:1035600070B51C4D1C4E2A68AC6913682B60012194
:1035700082B05D60002082F82010AA613268A168E4
:1035800084F82000019200E01B689A688A42FBD808
:1035900023605A686260204614605C60FFF760FD3B
:1035A0002146A86900F0ECFBEFF30983E269643B74
:1035B0009A4202D90948FFF77BFB019A33689A4285
:1035C00006D1A869214602B0BDE87040FCF770BE84
:1035D000FDF74EFEF83A00200008002010DD00083C
:1035E00000B50E4A0E4B9269196892F8232083B0F9
:1035F000019142B1019A1B689A420DD103B05DF866
:1036000004EBFFF7ADBF019A1B689A4204D103B0E7
:103610005DF804EBFFF76CBFFDF72AFEF83A0020D7
:103620000008002000000000000000000000000072
:10363000F0B51A4A1A4D02610446816083B0142322
:1036400050692E68616484F8233002270023012129
:10365000278484F82210C4E90F3304F16801A361C0
:10366000019604F12C07636204F1500604F1300363
:1036700060610461C4E90C33E1613046E762546182
:1036800000F086FA304600F0A3FA019A2B689A42BD
:1036900002D1204603B0F0BDFDF7EAFDF83A002064
:1036A00000080020000000000000000000000000F2
:1036B00010B5094B82B01C680194884203D200F80F
:1036C000012B8142FBD1019A1B689A4201D102B0C1
:1036D00010BDFDF7CDFD00BF000800200000000078
:1036E0002DE9F043184E83B0346801940546DDF8A7
:1036F00028900C4617469846FFF74AFC15B1B4F5DA
:10370000BC7F19D21148FFF7D3FAA4F16401294410
:10371000E960C1F84080EB68019AC3F844903368CF
:10372000E9680B4808669A420CD13946284603B02E
:10373000BDE8F043FFF77CBF7F2FE3D8B8F1000F5F
:10374000E3D1DFE7FDF794FD0008002060DD00080D
:10375000C902000800000000000000000000000096
:103760002DE9F04FDFF8A48087B0D8F80040DDF8ED
:103770004090059407468A46934600F16806044641
:10378000FF2504F8015BA642FBD107EB0A05A54221
:1037900004D9552604F8016BA542FBD103932022DE
:1037A00082F3118800F00CFBFFF722FB039BCDF89E
:1037B00000905A4651463846FFF792FF00210446D2
:1037C000FFF726FEFFF734FB00F012FB0D4B1A68E3
:1037D0009A4204D0996993688A689A420BD300236D
:1037E00083F31188059AD8F800309A42204606D112
:1037F00007B0BDE8F08F0448FFF75AFAEFE7FDF78E
:1038000037FD00BFF83A002020DD00080008002046
:1038100030B5184C83B0236801930546202383F309
:10382000118800F0CDFAFFF7E3FA15B91248FFF757
:103830003FFA29460820FFF7B3FDFFF7F9FA00F039
:10384000D7FA0E4B1A689A4204D0996993688A682D
:103850009A4208D3002383F31188019A23689A427D
:1038600005D103B030BD0648FFF722FAF2E7FDF7B5
:10387000FFFC00BF0008002030DD0008F83A0020FF
:1038800020DD000800000000000000000000000033
:10389000F0B51C4F83B03B68019304460E462023CD
:1038A00083F31188184D00F08BFAFFF7A1FAA96A8B
:1038B000331B0C1B9C4219D3FFF7BAFA00F098FA9D
:1038C0002B68AB4204D0AA699B6892689A4209D3DC
:1038D000002383F31188019A3B689A4230460FD146
:1038E00003B0F0BD0948FFF7E3F9F1E7741A02D11C
:1038F0000748FFF7DDF921460820FFF751FDDBE718
:10390000FDF7B6FC00080020F83A002020DD000892
:1039100030DD000800000000000000000000000092
:1039200070B5164B164E9C693268E36AA06282B08D
:1039300004F12C05AB42019207D01A68E2621846E6
:10394000FFF76EFCE36AAB42F7D194F821309B0796
:1039500005D1D4E904231A61D4E904325A610F2055
:10396000FFF7DEFC019A33689A4205D1054802B0A0
:10397000BDE87040FFF79CB9FDF77AFCF83A0020EB
:103980000008002070DD00080000000000000000BA
:1039900030B50C4C83B0236801930546202383F394
:1039A000118800F00DFAFFF723FA019A23689A4272
:1039B00005D1284603B0BDE83040FFF7B1BFFDF7A1
:1039C00057FC00BF000800200000000000000000BD
:1039D000F0B50D4D0D4E03682A68B76983B00446F3
:1039E000019213B10A48FFF763F927600320BC6214
:1039F000FFF796FC019A2B68B1699A42886A01D157
:103A000003B0F0BDFDF734FC00080020F83A0020B8
:103A100080DD000800000000000000000000000041
:103A2000F0B5124D04682B6883B00193B4B194F8DB
:103A30002030032B06460F460CD100233360019A39
:103A40002B68A7629A420FD1204603B0BDE8F04030
:103A5000FFF7E6BB0648FFF72BF9EEE7019A2B6864
:103A60009A4201D103B0F0BDFDF702FC000800202E
:103A700090DD0008000000000000000000000000D1
:103A800030B5104A83B01368019381B10E4B019D8C
:103A90009B69186044685C602360126843609542CB
:103AA0000DD1042003B0BDE83040FFF779BC019987
:103AB000136899424FF0FF3001D103B030BDFDF7DC
:103AC000D7FB00BF00080020F83A002000000000EB
:103AD00070B5124D04682B6882B0A042019315D0D6
:103AE00023680360586094F82030042B0E4602D0FF
:103AF0000B48FFF7DDF8019A2B68A6629A420BD1BA
:103B0000204602B0BDE87040FFF78ABB019A2B68DF
:103B10009A4201D102B070BDFDF7AAFB0008002057
:103B200040DD000800000000000000000000000070
:103B30002DE9F041DFF850800468D8F8003082B0F9
:103B4000A042019313D00F4F05460E4623682B6009
:103B50005D6094F82030042B02D03846FFF7A8F8B7
:103B6000A6622046FFF75CFB2C68A542EED1019AC5
:103B7000D8F800309A4202D102B0BDE8F081FDF7DA
:103B800077FB00BF40DD00080008002000000000B7
:103B900030B50B4B83B01A6801924FF0FF320260D0
:103BA00001991A680024002300259142C0E90445C8
:103BB000C0E90133C36001D103B030BDFDF758FB4C
:103BC00000080020000000000000000000000000CD
:103BD00000B5084B084A196883B001915168019AF1
:103BE0001B6881609A4202D103B05DF804FBFDF7C7
:103BF0003FFB00BF00080020001000E000000000B4
:103C0000F0B51449144B0A68846883B00192134AD2
:103C10005B68D2F8A864C2681B1BD0E90445013276
:103C20009B1BC26042688360E61845F1000793421F
:103C3000C0E9046709D80268934238BF0360019A5B
:103C40000B689A4203D103B0F0BD4360F7E7FDF77C
:103C50000FFB00BF00080020001000E0F83A002031
:103C600030B5114D114C2B6889B04FF0FF310793DF
:103C7000002300226846C4F8A834CDE90133039339
:103C80000023CDE904230091FFF7A2FF6846FFF768
:103C9000B7FF079A2B680299C4F8A8149A4201D179
:103CA00009B030BDFDF7E4FA00080020F83A002022
:103CB0002DE97048134E144B326883B001925B6853
:103CC0008B60D0E902411B1BD0E90445426814EB2C
:103CD000030B45F1000C01319342C0E90231C0E908
:103CE00004BC0AD80268934238BF0360019A336863
:103CF0009A4204D103B0BDE870884360F6E7FDF74F
:103D0000B7FA00BF00080020001000E0000000002B
:103D100030B50D4D0D4C2B6883B004F597600193C1
:103D20000023C4F8B034C4F8B434FFF731FF019A6B
:103D30002B689A4206D104F59A6003B0BDE8304082
:103D4000FFF726BFFDF794FA00080020F83A00209C
:103D500000B50949094A0B6883B001930198D2F86C
:103D6000B034096801338842C2F8B03402D103B0DC
:103D70005DF804FBFDF77CFA00080020F83A00200B
:103D800070B50D4C0D4A236882B00193019DD2F8A5
:103D9000B43424680133A542C2F8B43409D10E46C4
:103DA00000F1500106F1500002B0BDE87040FFF78D
:103DB0007FBFFDF75DFA00BF00080020F83A002041
:103DC00000B5084B83B01A680192019A1B689A42A9
:103DD00005D1054803B05DF804EBFFF7F9BEFDF728
:103DE00047FA00BF00080020B03F0020000000009C
:103DF00000B5084B83B01A680192019A1B689A4279
:103E000005D1054803B05DF804EBFFF7F9BEFDF7F7
:103E10002FFA00BF00080020B03F00200000000083
:103E200000B5084B83B01A680192019A1B689A4248
:103E300005D1054803B05DF804EBFFF7C9BEFDF7F7
:103E400017FA00BF00080020C83F00200000000053
:103E500000B5084B83B01A680192019A1B689A4218
:103E600005D1054803B05DF804EBFFF7C9BEFDF7C7
:103E7000FFF900BF00080020C83F0020000000003C
:103E800030B50B4D83B02B680193044650B12460CC
:103E900001992A68646000239142A360236105D1DF
:103EA00003B030BD0348FEF703FFF0E7FDF7E0F98C
:103EB00000080020D0DD0008000000000000000025
:103EC000F0B55D4E5D4B32689D6983B0044601924A
:103ED000FFF786F8002C00F08480A0682369002892
:103EE00043D0002B40F39780854276D0AA68836840
:103EF0009A4208D990F820308260062B40D0072BD8
:103F000073D0002B5DD02746234603E09968AA684A
:103F1000914233D31B689C42F8D12F607B686B6061
:103F200006201D607D60AC62FFF7FAF9A368AB4222
:103F300002D04348FEF7BCFE2B6CA34202D040489F
:103F4000FEF7B6FE2369012B05D1019A33689A4228
:103F50006FD103B0F0BD019A33689A4269D13848F5
:103F600003B0BDE8F040FEF7A3BE002B58D10133EB
:103F7000A56023612B6CE3602C64E6E71F46CCE769
:103F8000D0E900231A60D0E900325A60876A3B46C4
:103F900003E099688268914247D31B689F42F8D139
:103FA00007607B68436018607860836AAA689868D5
:103FB00083689342A7D290F820308260062B9ED16E
:103FC000DEE7D0E90023012180F820101A60D0E953
:103FD00000325A60FFF724F995E723690133236122
:103FE000B3E71748FEF764FE77E7D0E900231A60CD
:103FF000D0E900325A60876A3B4603E099688268DC
:10400000914214D31B689F42F8D107607B684360DC
:104010001860786077E70A48FEF74AFEA06863E711
:104020000748FEF745FE2369A1E71F46B8E71F468C
:10403000EBE7FDF71DF900BF00080020F83A00206B
:10404000E0DD0008000000000000000000000000AB
:1040500030B5154C83B0236801930546202383F3C4
:104060001188FFF7ADFEFEF7C3FE2846FFF728FFD5
:10407000FEF7DEFEFFF7BCFE0C4B1A689A4204D036
:10408000996993688A689A4208D3002383F3118858
:10409000019A23689A4205D103B030BD0448FEF767
:1040A00007FEF2E7FDF7E4F800080020F83A0020E8
:1040B000C0DD00080000000000000000000000005B
:1040C0002DE9F043DFF800813C4FD8F80030BE699D
:1040D00083B005460193002864D0202383F3118820
:1040E000FFF76EFEFEF784FE336C002B5ED09B68FC
:1040F000B34202D03248FEF7DBFD2B69002B49DDCD
:10410000013B2B615BBB336CAB4202D02C48FEF70A
:10411000CFFDEB683364FEF763FF2B689D423ED012
:10412000D6E910495CB1FEF75BFF23689C4203D0DF
:104130009B68994538BF9946E468002CF3D1C6F8CE
:1041400008902B6801222A611A682A605560AB60CA
:104150001A6CEA6018461D640021FFF759F9FEF752
:1041600067FEFFF745FE3B68BB4204D0BA699B6817
:1041700092689A420AD3002383F31188019AD8F8EF
:1041800000309A4217D103B0BDE8F0830D48FEF726
:104190008FFDF0E70A48FEF78BFD2B69B0E700239F
:1041A000AB60DCE70648FEF783FD96E70448FEF7C0
:1041B0007FFD336C9BE7FDF75BF800BFF83A00200A
:1041C000F0DD0008C0DD000800080020000000004D
:1041D0002DE9F041DFF8D880334BD8F800209E69F4
:1041E00082B005460192FEF7FBFE002D4FD0336CE6
:1041F000002B52D09B68B34202D02C48FEF758FDEA
:104200002B69002B3EDD013B2B61002B32D1336C3F
:10421000AB4202D02548FEF74BFDEB683364FEF756
:10422000DFFE2B689D4223D0D6E910475CB1FEF734
:10423000D7FE23689C4203D09B689F4238BF1F462D
:10424000E468002CF3D1B7602868019901232B6141
:1042500003682B60D8F800205D60A860036CEB60F9
:10426000914205641ED102B0BDE8F041FEF7D8BF0F
:104270000023AB60019AD8F800309A4212D102B004
:10428000BDE8F0810948FEF713FD2B69BBE707483D
:10429000FEF70EFD336C002BACD10448FEF708FD91
:1042A000336CA7E7FCF7E4FFF83A002000DE0008D3
:1042B00000080020000000000000000000000000D6
:1042C00070B5114E82B0044633680193FEF760FE6C
:1042D0009CB12068A0420AD06FF0010503682360FA
:1042E0005C60FEF79DFF85622068A042F6D1019ACE
:1042F00033689A4205D102B070BD0448FEF7D8FC7D
:10430000E7E7FCF7B5FF00BF0008002020DE00084B
:104310002DE9F0411E4F1F4E3B68B46982B005463F
:104320000193FEF75DFE65B3236C33B3B369D3F835
:1043300040804046FFF74CFF2E46A5622B4603E027
:104340009968A268914216D31B689D42F8D12660F5
:104350007368636007201C607460FEF7E1FF4046ED
:10436000A46AFFF7ADFD019A3B689A4220460CD142
:1043700002B0BDE8F0811E46E9E70748FEF798FC69
:10438000D4E70548FEF794FCCEE7FCF771FF00BFC9
:1043900000080020F83A002040DE0008000000007D
:1043A00030B5164C83B0236801930546202383F370
:1043B0001188FFF705FDFEF71BFD2846FFF7A8FF54
:1043C0000546FEF735FDFFF713FD0D4B1A689A42BF
:1043D00004D0996993688A689A4209D3002383F3C9
:1043E0001188019A23689A42284605D103B030BD4E
:1043F0000448FEF75DFCF1E7FCF73AFF00080020F7
:10440000F83A002010DE0008000000000000000064
:104410002DE9F0431D4F83B03C68019491460C4652
:104420009846064660B359B3202383F31188FFF7FB
:10443000C7FC174DFEF7DCFC336823603460AB69C2
:1044400063600023C4E90338C4F80890FEF7F0FC69
:10445000FFF7CEFC2B68AB4204D0AA699B68926838
:104460009A4209D3002383F31188019A3B689A4248
:104470000AD103B0BDE8F0830648FEF719FCF1E766
:104480000548FEF715FCCFE7FCF7F2FE0008002018
:10449000F83A002050DE000860DE0008000000004E
:1044A00070B5164C82B0236801930546202383F330
:1044B0001188FFF785FCFEF79BFC0023EE68EB609C
:1044C000FEF7B6FCFFF794FC0D4B1A689A4204D035
:1044D000996993688A689A4209D3002383F3118803
:1044E000019A23689A42304605D102B070BD054852
:1044F000FEF7DEFBF1E7FCF7BBFE00BF0008002083
:10450000F83A002050DE0008000000000000000023
:1045100070B5184E82B00446336801930D46FEF71D
:1045200037FD0CB3E16B94F8203029430A2BE1638B
:1045300016D00B2B05D0019A33689A4218D102B0DD
:1045400070BDA36A8B43F6D1019A336800219A4269
:10455000A1620DD1204602B0BDE87040FEF760BEFA
:10456000A36A1942F0D1E6E70348FEF7A1FBD9E7B9
:10457000FCF77EFE00080020A0DE0008000000001E
:10458000F0B5134F83B006463B6801930D46FEF726
:10459000FFFCB6B13468A6420DD0E3682B43E3605C
:1045A00015B12269134203D0D4E90101FFF7B0FF2E
:1045B0002468A642F1D1019A3B689A4205D103B022
:1045C000F0BD0448FEF774FBE4E7FCF751FE00BFC2
:1045D0000008002080DE000800000000000000004D
:1045E0002DE9F041DFF87C801C4CD8F80030A5693B
:1045F00082B006460193202383F31188FFF7E0FB86
:10460000FEF7F6FBEB6B13EA060706D1AE620A2053
:10461000FEF786FEEB6B03EA060723EA0703EB636C
:10462000FEF706FCFFF7E4FB2368A34204D0A2696F
:104630009B6892689A420BD3002383F31188019AF6
:10464000D8F800309A42384606D102B0BDE8F08171
:104650000348FEF72DFBEFE7FCF70AFEF83A0020CF
:1046600050DE0008000800200000000000000000EC
:1046700070B50C4CC16082B0266801960A44006097
:10468000019E02612268069D4060C0E905119642C4
:104690004FF00001C3618160056201D102B070BDBD
:1046A000FCF7E6FD0008002000000000000000000C
:1046B00070B5164D82B004462B6801930E46FEF786
:1046C00067FCFEF765FCD4E905239A42A36816D07F
:1046D0000133511CA36061611670D4E904329A421F
:1046E0000AD220460021FFF7F3F90020019A2B6837
:1046F0009A4209D102B070BDE3686361F1E7002B13
:10470000E6D06FF00300F1E7FCF7B2FD00080020EF
:10471000F0B5234F83B03B68019304460E46202337
:1047200083F31188FFF74CFBFEF762FBE36943B1AB
:104730002046984705E031462046FFF7A1F9051EBF
:1047400010DBFEF725FCA368002BF4D0A1692069DB
:104750004A1C013B8242A360A26128BFE3680D7836
:1047600028BFA361FEF764FBFFF742FB0D4B1A68FD
:104770009A4204D0996993688A689A4209D30023BF
:1047800083F31188019A3B689A42284605D103B009
:10479000F0BD0548FEF78CFAF1E7FCF769FD00BFB4
:1047A00000080020F83A0020B0DE000800000000F9
:1047B0002DE9F04FDFF8F490044685B0D9F80000F9
:1047C00003908A461D46D4F81C809346002A60D088
:1047D000202383F311880193FFF7F2FAFEF708FB19
:1047E0002F4E0027B8F1000F07D02046C04704E045
:1047F00029462046FFF744F960BBFEF7C9FBA368D2
:10480000002BF5D0A269013B511CA161A360137874
:104810000AF8013B2369A2699A4224BFE368A361B5
:10482000FEF706FBFFF7E4FA3368B34204D0B2693F
:104830009B6892689A4228D3002383F3118801373A
:10484000BB4519D0019B83F31188FFF7B9FAFEF736
:10485000CFFAC7E7FEF7ECFAFFF7CAFA3368B342BC
:1048600007D0B2699B6892689A4202D20D48FEF75F
:104870001FFA002383F31188039AD9F800309A4273
:1048800038460AD105B0BDE8F08F0648FEF710FAA9
:10489000D2E70548FEF70CFA9AE7FCF7E9FC00BFFF
:1048A000F83A0020B0DE0008C0DE00080008002052
:1048B00070B50B4D82602E68C16082B0C0E9000007
:1048C00001960A44019E02612A68069C9642C0E94C
:1048D0000511C0E9073401D102B070BDFCF7C8FC76
:1048E00000080020000000000000000000000000A0
:1048F0002DE9F0412E4F82B03B6801930446884673
:104900001646202383F31188FFF75AFAFEF770FA50
:1049100005E031462046FFF7B3F8051E2DDBFEF714
:1049200037FBA368002BF4D06269013B511C616125
:10493000A36082F80080D4E904329A4224BFE3687D
:104940006361E3690BB120469847FEF771FAFFF700
:104950004FFA184B1A689A4204D0996993688A688A
:104960009A421ED3002585F31188019A3B689A422A
:1049700028461AD102B0BDE8F081FEF759FAFFF7D8
:1049800037FA0C4B1A689A4207D0996993688A687B
:104990009A4202D20848FEF78BF9002383F311886C
:1049A000E3E70548FEF784F9DCE7FCF761FC00BFAC
:1049B00000080020F83A0020B0DE000800000000E7
:1049C00070B5154E82B0044633680193FEF7E0FAE5
:1049D000FEF7DEFAD4E905329342A36815D02069C8
:1049E000511C0133A360A161814215780AD220468F
:1049F0000021FFF76DF82846019A33689A4209D1E1
:104A000002B070BDE368A361F1E7002BE7D06FF05F
:104A10000200F1E7FCF72CFC000800200000000079
:104A20002DE9F04F04463B48D4F81C90006885B04F
:104A30000D46039001931646002A61D04FF0200ADC
:104A40008AF31188FFF7BCF9FEF7D2F94FF000089E
:104A5000314FC346FEF79CFAA368002B32D062693F
:104A6000013B511C6161A3602B781370D4E90432BF
:104A70009A4224BFE36863610135B9F1000F01D0A8
:104A80002046C847FEF7D4F9FFF7B2F93B68BB42AE
:104A900007D0BA699B6892689A4202D21F48FEF713
:104AA00007F98BF31188013E08F101081FD08AF342
:104AB0001188FFF785F9FEF79BF9FEF769FAA368FD
:104AC000002BCCD101992046FEF7DAFF0028C1D097
:104AD000FEF7AEF9FFF78CF93B68BB4204D0BA6928
:104AE0009B6892689A420FD3002383F31188094B85
:104AF000039A1B689A4240460AD105B0BDE8F08F80
:104B00000748FEF7D5F899E70448FEF7D1F8EBE738
:104B1000FCF7AEFB00080020F83A0020B0DE0008E9
:104B2000D0DE0008000000000000000000000000CF
:104B300030B50B490B4A0B680B4D0C4C83B022F07F
:104B40000702019301980A4B09682A6023F00703C2
:104B50008842236001D103B030BDFCF789FB00BF60
:104B600000080020BF4A00206C410020684100205E
:104B70000000022000000000000000000000000013
:104B800070B51C4E82B0336801930446202383F332
:104B90001188FFF715F9FEF72BF9FEF7F9F9164A18
:104BA000164B15681B68E01D20F007005B1B984240
:104BB0009ABF401910600025FEF73AF9FFF718F97F
:104BC0000F4B1A689A4204D0996993688A689A428E
:104BD00009D3002383F31188019A33689A42284647
:104BE00005D102B070BD0748FEF762F8F1E7FCF7A7
:104BF0003FFB00BF000800206C41002068410020FE
:104C0000F83A0020F0DE000800000000000000007C
:104C100000B50B4B0B481A6883B0019201991A68D2
:104C2000094B036091424FF00003C0E9023305D104
:104C3000103003B05DF804EBFFF722B9FCF718FB66
:104C40000008002070410020814B00080000000097
:104C500080B50D4A0D4982B000AF13687B604B6888
:104C600023F001034B60EFF30983683383F3098872
:104C7000002383F3118879681368994202D10837B9
:104C8000BD4680BDFCF7F4FA0008002030EF00E0DC
:104C9000B0B5194C82B000AF23687B60202383F34A
:104CA0001188164B5B6813F4006308D183F31188F5
:104CB0007A6823689A421DD10837BD46B0BDF1EE2F
:104CC000103AEFF309854FF080720D4B45F84C2CEC
:104CD000DB6845F8083CA5F1680383F30988FEF713
:104CE000DFFB18B1074B45F8503CE1E7064B45F8B0
:104CF000503CDDE7FCF7BCFA0008002000ED00E0C6
:104D000030EF00E0E1020008F402000800000000BB
:104D100010B5184C82B02368019302F0B9F9164817
:104D200003F0D6FC00F0D4F800F00AF900F050F9D6
:104D300000F07EF900F0ACF900F0DAF900F008FAC2
:104D400000F036FA01F03CF800F042FF01F010F9F3
:104D500001F07EFA01F0FCF805F08AF9019A236867
:104D60009A4204D102B0BDE8104001F059BAFCF7F4
:104D70007FFA00BF0008002020E4000800000000C7
:104D8000F0B51A4D83B02B68019391420E4614463C
:104D9000074619D38B1A1F2B16D806F01F03581C71
:104DA0006209012376098340B24203F1FF3304F024
:104DB0001F0457F822000BD31840E040019A2B68DB
:104DC0009A4210D103B0F0BD0948FDF771FFE4E746
:104DD00057F82610C4F120020B4020FA04F403FA1D
:104DE00002F02043EAE7FCF743FA00BF0008002086
:104DF00000DF0008000000000000000000000000CC
:104E0000F0B51D4E83B033680193054670B37E2222
:104E10007F212846FFF7B4FF80B1012806D000208B
:104E2000019A33689A4225D103B0F0BD284630225A
:104E30004521FFF7A5FF01308002F1E73E2249211D
:104E40002846FFF79DFF2F22044631212846FFF711
:104E500097FF5022074653212846FFF791FF013460
:104E600002370938BC4004FA00F0D9E70348FDF7DF
:104E70001FFFCCE7FCF7FCF90008002020DF00084A
:104E8000F0B5104D83B02B680193044698B194F8A7
:104E9000D63094F8D770019994F8D4602A6894F8C1
:104EA000D5001B0403EB07633344914203EB00205E
:104EB00005D103B0F0BD0448FDF7FAFEE7E7FCF7C3
:104EC000D7F900BF0008002040DF00080000000004
:104ED00000B5074B83B01A680192019A1B689A4289
:104EE00004D103B05DF804EB02F092B9FCF7C0F90D
:104EF000000800200000000000000000000000008A
:104F000000B50C4B83B01A6801920122027001991E
:104F10001A6800239142C0E90133C0E903334361B9
:104F200005D1183003B05DF804EBFEF7A9BFFCF71C
:104F30009FF900BF000800200000000000000000F2
:104F400000B5074B83B01A680192019A1B689A4218
:104F500004D103B05DF804EB02F002BFFCF788F95E
:104F60000008002000000000000000000000000019
:104F700030B5134B83B01A68019201220270019C74
:104F80001968002200F1180300F11C0542608361DA
:104F900000F1200200F12403C561026200F128053E
:104FA00000F1080243628C4200F110038562C0E9FF
:104FB0000222C0E9043301D103B030BDFCF758F937
:104FC00000080020000000000000000000000000B9
:104FD00000B5074B83B01A680192019A1B689A4288
:104FE00004D103B05DF804EB03F052BBFCF740F9C9
:104FF0000008002000000000000000000000000089
:1050000000B50A4B83B01A6801920122027001991F
:105010001A6800239142C0E9043305D1183003B067
:105020005DF804EBFEF72CBFFCF722F90008002026
:1050300000B5074B83B01A680192019A1B689A4227
:1050400004D103B05DF804EB02F0AABEFCF710F93E
:105050000008002000000000000000000000000028
:1050600000B5084B83B01A68019201220270019AC0
:105070001B6800219A42416002D103B05DF804FB35
:10508000FCF7F6F800080020000000000000000017
:1050900000B5074B83B01A680192019A1B689A42C7
:1050A00004D103B05DF804EB04F062BBFCF7E0F858
:1050B00000080020000000000000000000000000C8
:1050C00000B5084B83B01A68019201220270019A60
:1050D0001B6800219A42416002D103B05DF804FBD5
:1050E000FCF7C6F8000800200000000000000000E7
:1050F00000B5074B83B01A680192019A1B689A4267
:1051000004D103B05DF804EB03F0FABCFCF7B0F88F
:105110000008002000000000000000000000000067
:1051200000B50A4B83B01A68019201220270019AFD
:105130001B6800219A42416005D10C3003B05DF834
:1051400004EBFEF79DBEFCF793F800BF00080020BB
:1051500000B5074B83B01A680192019A1B689A4206
:1051600004D103B05DF804EB04F0D2B8FCF780F88A
:105170000008002000000000000000000000000007
:1051800000B5084B83B01A68019201220270019A9F
:105190001B6800219A42416002D103B05DF804FB14
:1051A000FCF766F800080020000000000000000086
:1051B00000B5074B83B01A680192019A1B689A42A6
:1051C00004D103B05DF804EB04F0C2BBFCF750F867
:1051D00000080020000000000000000000000000A7
:1051E00000B5094B83B01A6801920122027001993F
:1051F0001A68002391424360C360037402D103B074
:105200005DF804FBFCF734F8000800200000000003
:1052100070B5214E82B0336801930D4604460028D4
:1052200033D0002931D0202383F31188FEF7C8FD45
:10523000FDF7DEFD2378013B012B02D91748FDF76E
:1052400037FD65606B68A360204604F0C1FB002257
:105250000223E2602370FDF7EBFDFEF7C9FD104B62
:105260001A689A4204D0996993688A689A4208D366
:10527000002383F31188019A33689A4209D102B05E
:1052800070BD0848FDF714FDF2E70448FDF710FD76
:10529000C9E7FBF7EDFF00BF0008002070DF000842
:1052A000F83A002060DF0008000000000000000065
:1052B000F0B5214E83B0336801930D46174604467E
:1052C00078B3037C8B422CD9202383F31188FEF71B
:1052D00077FDFDF78DFD2378022B02D01748FDF7EF
:1052E000E7FCE3680122AA401343E3603A462946FB
:1052F000204604F055FCFDF79BFDFEF779FD104BB1
:105300001A689A4204D0996993688A689A420CD3C1
:10531000002383F31188019A33689A4209D103B0BC
:10532000F0BD0648FDF7C4FCCEE70648FDF7C0FC1B
:10533000EEE7FBF79DFF00BF0008002080DF0008BC
:10534000F83A002060DF00080000000000000000C4
:1053500070B5204E82B0336801930D46044678B391
:10536000037C8B422CD9202383F31188FEF728FD80
:10537000FDF73EFD2378022B02D01748FDF798FC7D
:10538000E3680122AA4023EA0203E360294620469B
:1053900004F01EFCFDF74CFDFEF72AFD0F4B1A68CA
:1053A0009A4204D0996993688A689A420CD3002380
:1053B00083F31188019A33689A4209D102B070BD13
:1053C0000548FDF775FCCEE70548FDF771FCEEE7F3
:1053D000FBF74EFF00080020A0DF0008F83A00208D
:1053E00060DF000800000000000000000000000076
:1053F00030B51E4D83B02B680193044680B3202343
:1054000083F31188FEF7DCFCFDF7F2FC2378022B16
:1054100002D01748FDF74CFC63689B68E3B1204657
:1054200004F0F6FBFDF704FDFEF7E2FC114B1A68F1
:105430009A4204D0996993688A689A4208D30023F3
:1054400083F31188019A2B689A420DD103B030BDC5
:105450000948FDF72DFCF2E70548FDF729FCDEE7DA
:105460000348FDF725FCCAE7FBF702FF0008002010
:10547000C0DF0008F83A002060DF000800000000EC
:1054800070B5294E82B0336801930D46044600285A
:1054900032D0037C8B422FD9202383F31188FEF76F
:1054A0008FFCFDF7A5FC2378022B02D01F48FDF7E7
:1054B000FFFBE368EB40DB0726D5636803EBC5031E
:1054C0001B6953B32946204604F0C2FBFDF7B0FC2C
:1054D000FEF78EFC164B1A689A4204D099699368BD
:1054E0008A689A420CD3002383F31188019A3368A7
:1054F0009A4216D102B070BD0C48FDF7D9FBCBE73C
:105500000C48FDF7D5FBEEE70848FDF7D1FB6368D3
:1055100003EBC5031B69002BD4D10448FDF7C8FB7E
:10552000D0E7FBF7A5FE00BF00080020E0DF000881
:10553000F83A002060DF00080000000000000000D2
:1055400070B5104D82B02B6801930E46044650B1E1
:1055500049B12379052B0CD00120019A2B689A427E
:105560000ED102B070BD0848FDF7A2FB2379052BD0
:10557000F2D1A36A73604FF4007333600020ECE74C
:10558000FBF776FE0008002070E000080000000035
:105590002DE9F047DFF89C8386B002AFD8F80030E1
:1055A000FB600446002800F019812379022B01D00A
:1055B000052B2BD103232371204602F089FC002206
:1055C0001146204602F0FCFC07F108034FF4D572A7
:1055D0000821204602F03CFDE0B9BB680122C3F37C
:1055E00003239342226300F0FD80204602F0A8FCD2
:1055F000022323710125FA68D8F800309A42284620
:1056000040F046811037BD46BDE8F087C048FDF741
:105610004FFBCFE707F1080300223721204602F0B5
:1056200017FD002840F0BE80BB68BA4A1A40002A25
:1056300040F0B88022631146204602F0C1FC266B80
:1056400006F00F03022B00F0AF80B34EB34ADFF831
:10565000C492012B18BF1646642504E0013DC4D056
:105660000A20FEF7D5F807F108030022372120466B
:1056700002F0EEFC0028B8D1BB6813EA090FB4D1E0
:1056800007F1080332462921204602F0B9FC002820
:10569000ABD1BB68002BE1DA5B0003D5236B43F091
:1056A0001003236304F1080300220221204602F0C4
:1056B000C7FD002899D1024604F138030321204692
:1056C00002F0C6FC002890D104F118052B46A26B0D
:1056D0000921204602F0B4FD002886D13B1DA26BB3
:1056E0000721204602F0B4FC824600287FF47DAFFB
:1056F000236B03F00F03022B00F097806E467E228F
:1057000090B07F212846FFF73BFB0DF108090028E8
:1057100079D10146B546204602F0FAFB236B03F02F
:105720000F03022B00F096802846FFF769FBA0626A
:105730003B1D4FF400721021204602F089FC054603
:1057400000287FF452AF7B68724E33427FF44DAF36
:10575000236B03F00F03012B40F2B280022B7FF486
:1057600044AFE36A1A79012A00F0A88017D3022A0D
:1057700040F0E2806A4E1979204602F0F9FB07F109
:10578000080332460621204602F062FC00287FF41E
:105790002CAFBA685F4B1340002B7FF426AF052374
:1057A000237128E7022323635E4E642505E0013D53
:1057B0003FF41BAF0A20FEF72BF807F1080332462F
:1057C0000121204602F01CFC00287FF40EAFBB68CC
:1057D000002BECDA5B007FF565AF5FE74C48FDF727
:1057E00067FAE2E6024607F108033721204602F095
:1057F0002FFC00287FF4F9AEBA68464B1340002B0B
:105800007FF4F3AE1BE7CDF800A006234022494603
:10581000204602F045FD00284ED199F80D3013F0D6
:10582000020337D11946B54675E7E36A1B687BB1B9
:1058300007F108033C4A0621204602F009FC38B96A
:10584000BB6834491940B1FA81F1490963E7B546AB
:10585000002160E77E227F212846FFF791FA012888
:105860007FF662AFE36A1D68002D3FF4BEAE0023F1
:1058700000934FF4007208232946204602F010FDE1
:1058800000287FF4B2AE2846FFF7FAFAA0624FE78D
:10589000FBF7EEFC254B00934022062349462046A9
:1058A00002F0FEFC40B999F8103003F00F030F2B03
:1058B000CDD0B54601212EE7B54696E61C4E5AE7F7
:1058C000E36A197900293FF46AAF01297FF48DAEAC
:1058D000204602F04DFB07F10803A26B372120465A
:1058E00002F0B6FB00287FF480AEBB6833427FF441
:1058F0007CAE07F1080302220621204602F0A8FB35
:1059000000287FF472AEBB6833423FF448AF6CE6C8
:1059100020E0000808E0FFFD000010C0000010803B
:105920000002B7030080FFC00001B903F1FFFF8050
:105930000001B703000800200248034EFDF7B8F944
:10594000E36A18E700E000080000B7030000000069
:105950002DE9F041194D82B02C6801940F46904614
:105960001E460446C0B1BAB1B3B12379052B02D0AB
:105970001348FDF79DF9781EA36A304498420FD969
:10598000636B43F0800363630120019A2B689A42A2
:1059900011D102B0BDE8F0810948FDF789F9E4E7CB
:1059A00006203346207142463946204602F0D8FD93
:1059B00005232371E9E7FBF75BFC00BF000800202B
:1059C00040E00008000000000000000000000000AF
:1059D0002DE9F041194D82B02C6801940F46904694
:1059E0001E460446C0B1BAB1B3B12379052B02D02B
:1059F0001348FDF75DF9781EA36A304498420FD929
:105A0000636B43F0800363630120019A2B689A4221
:105A100011D102B0BDE8F0810948FDF749F9E4E78A
:105A200007203346207142463946204602F0D8FD11
:105A300005232371E9E7FBF71BFC00BF00080020EA
:105A400050E000080000000000000000000000001E
:105A500070B50E4D82B02B680193044680B1267953
:105A6000052E06D00120019A2B689A420CD102B073
:105A700070BD08232371204602F0F2FD2671F2E783
:105A80000348FDF715F9EAE7FBF7F2FB00080020F1
:105A900060E00008000000000000000000000000BE
:105AA00070B5124D124E2B6882B0044601936B46BE
:105AB000A26B0D21204602F0CBFA78B9009B33424D
:105AC0000BD1C3F34323042B08D04FF0010005D3BF
:105AD000072B03D8FDF79CFEE9E70120019A2B680C
